S0160000576176652067656E657261746F722E7372656394
S113000021C030C02FC02EC02DC02CC02BC02AC090
S113001029C028C027C026C025C024C023C022C0B0
S113002021C020C01FC005A84CCDB2D44EB938366B
S1130030A9020C50B9918688083CA6AAAA2ABE0037
S11300400000803F11241FBECFE5D4E0DEBFCDBF4A
S113005022E0A0E6B0E001C01D92A036B207E1F7AD
S113006035D053C2CDCF0F931F93CF93DF9300E6C8
S113007010E0C0E0D0E0BE010D2E000C880B990BFF
S113008072D038D120E030E040E853E4D0D038D00A
S1130090F801619371938F012196C115F1E0DF0797
S11300A051F7DF91CF911F910F910895DC01E0E6A4
S11300B0F0E020E632E081E28A95F1F700009081D9
S11300C032969C93E217F307B1F708958FEF87BB3D
S11300D009D0C9DF81E610D065E070E088E390E0E4
S11300E0E5DFFACF10BC83E389B98AB188618AB9A4
S11300F080B5866880BD08955D9BFECF8CB9089558
S113010004D06894B1118DC0089570D088F09F57C1
S113011090F0B92F9927B751A0F0D1F0660F771F4F
S1130120881F991F1AF0BA95C9F712C0B13081F02F
S113013077D0B1E0089574C0672F782F8827B85F0F
S113014039F0B93FCCF3869577956795B395D9F790
S11301503EF490958095709561957F4F8F4F9F4F9A
S11301600895E89409C097FB3EF4909580957095A6
S113017061957F4F8F4F9F4F9923A9F0F92F96E9EF
S1130180BB279395F695879577956795B795F11164
S1130190F8CFFAF4BB0F11F460FF1BC06F5F7F4F01
S11301A08F4F9F4F16C0882311F096E911C0772313
S11301B021F09EE8872F762F05C0662371F096E81C
S11301C0862F70E060E02AF09A95660F771F881FEB
S11301D0DAF7880F9695879597F9089557FD905803
S11301E0440F551F59F05F3F71F04795880F97FBF7
S11301F0991F61F09F3F79F08795089512161306B1
S11302001406551FF2CF4695F1DF08C016161706DF
S11302101806991FF1CF8695710561050894089514
S1130220E894BB2766277727CB0197F908950BD06D
S1130230A6C06FD028F074D018F0952309F060C0E0
S113024065C01124EECFCADFA0F3959FD1F3950FBB
S113025050E0551F629FF001729FBB27F00DB11D46
S1130260639FAA27F00DB11DAA1F649F6627B00DD6
S1130270A11D661F829F2227B00DA11D621F739FBF
S1130280B00DA11D621F839FA00D611D221F749FCD
S11302903327A00D611D231F849F600D211D822F14
S11302A0762F6A2F11249F5750408AF0E1F088235B
S11302B04AF0EE0FFF1FBB1F661F771F881F915068
S11302C05040A9F79E3F510570F01AC0AACF5F3F76
S11302D0ECF3983EDCF3869577956795B795F7959B
S11302E0E7959F5FC1F7FE2B880F911D9695879523
S11302F097F908959F931CD00F9007FCEE5F50C0B0
S113030097F99F6780E870E060E008959FEF80ECC4
S1130310089500240A941616170618060906089567
S113032000240A9412161306140605060895EECF47
S11303305DDFE8F3E894E0E0BB279F57F0F02AED97
S11303403FE049EC06C0EE0FBB0F661F771F881F06
S113035028F0B23A62077307840728F0B25A620B96
S1130360730B840BE3959A9572F7803830F49A9561
S1130370BB0F661F771F881FD2F7904884C0092ED1
S11303800394000C11F4882352F0BB0F40F4BF2BEC
S113039011F460FF04C06F5F7F4F8F4F9F4F08952C
S11303A0EF93E0FF06C0A2EA2AED3FE049EC5FEBE1
S11303B015D0E5DF0F90039401FC9058E6E2F0E0DD
S11303C06EC0A7DF30F0ACDF20F031F49F3F11F4B2
S11303D01EF49CCF0EF4E095E7FB92CFE92FFEDEEE
S11303E080F3BA17620773078407950718F071F44E
S11303F09EF516CF0EF4E0950B2EBA2FA02D0B010F
S1130400B90190010C01CA01A0011124FF27591B55
S113041099F0593F50F4503E68F11A16F040A22F5B
S1130420232F342F4427585FF3CF469537952795CC
S1130430A795F0405395C9F77EF41F16BA0B620BCB
S1130440730B840BBAF09150A1F0FF0FBB1F661F12
S1130450771F881FC2F70EC0BA0F621F731F841F55
S113046048F4879577956795B795F7959E3F08F07B
S1130470B3CF9395880F08F09927EE0F979587953A
S113048008959F3F31F0915020F4879577956795B3
S1130490B795880F911D9695879597F908959F9321
S11304A08F937F936F93FF93EF939B01AC01BFDE18
S11304B0EF91FF9105D02F913F914F915F91B7CE6E
S11304C0DF93CF931F930F93FF92EF92DF927B0101
S11304D08C01689405C0DA2EEF01B5DEFE01E894C4
S11304E0A5912591359145915591AEF3EF0176DFB4
S11304F0FE019701A801DA9479F7DF90EF90FF905D
S11105000F911F91CF91DF910895F894FFCFD2
S9030000FC
