S0160000576176652067656E657261746F722E7372656394
S113000012C024C023C022C021C020C01FC01EC0F3
S11300101DC01CC01BC01AC019C018C017C016C010
S113002015C014C013C011241FBECFE5D4E0DEBF39
S1130030CDBF12E0A0E6B0E0E4EAF0E002C0059033
S11300400D92A036B107D9F712D02AC0D9CFDC015E
S1130050E0E6F0E020E632E081E28A95F1F7000084
S1130060908132969C93E217F307B1F708958FEFCE
S113007087BB08D081E610D065E070E088E390E0AB
S1130080E6DFFACF10BC83E389B98AB188618AB903
S113009080B5866880BD08955D9BFECF8CB90895B8
S10700A0F894FFCFFE
S11300A480008300860089008C008F0092009500F4
S11300B498009B009E00A200A500A700AA00AD0022
S11300C4B000B300B600B900BC00BE00C100C40057
S11300D4C600C900CB00CE00D000D300D500D700A1
S11300E4DA00DC00DE00E000E200E400E600E80000
S11300F4EA00EB00ED00EE00F000F100F300F40080
S1130104F500F600F800F900FA00FA00FB00FC0020
S1130114FD00FD00FE00FE00FE00FF00FF00FF00E6
S1130124FF00FF00FF00FF00FE00FE00FE00FD00D4
S1130134FD00FC00FB00FA00FA00F900F800F600E8
S1130144F500F400F300F100F000EE00ED00EB0024
S1130154EA00E800E600E400E200E000DE00DC007F
S1130164DA00D700D500D300D000CE00CB00C900FC
S1130174C600C400C100BE00BC00B900B600B30090
S1130184B000AD00AA00A700A500A2009E009B0039
S11301949800950092008F008C00890086008300EB
S11301A480007C0079007600730070006D006A00A2
S11301B46700640061005D005A0058005500520055
S11301C44F004C0049004600430041003E003B0000
S11301D439003600340031002F002C002A00280096
S11301E42500230021001F001D001B001900170017
S11301F415001400120011000F000E000C000B0077
S11302040A000900070006000500050004000300B5
S113021402000200010001000100000000000000CF
S113022400000000000000000100010001000200C1
S1130234020003000400050005000600070009008D
S11302440A000B000C000E000F0011001200140031
S11302541500170019001B001D001F0021002300B6
S1130264250028002A002C002F0031003400360019
S113027439003B003E0041004300460049004C0065
S11302844F005200550058005A005D00610064009C
S113029467006A006D0070007300760079007C00CA
S9030000FC
